:0C09BA004C4F47203A202534640D0A0001
:0809F200021C0000021E0000BF
:0C09AE008F463099FDC299AF468F992208
:03000B0002097077
:0B097000C0E0C0D075D000C006C0077A
:10097B00C28D758CFA758ACA051DE51DAE1C7002F9
:10098B00051C14FFD3EF94E8EE9403400D751C0087
:0A099B00751D00B291A292B3929272
:0909A500D007D006D0D0D0E0321A
:1007770075B10075B20075B30075B40075AC00753E
:10078700AD007F007EC27D017C00120596D2995391
:1007970089F0438901538EF7758CFA758ACAC28D21
:1007A700D28CD2A9D2AF7F0A7E007D007C001208CE
:1007B700D77BFF7A0979BA051FE51F851E0B7002E3
:0A07C700051E14F50C12007080DC12
:0107D1002205
:10082B008F258E248D238C22538EF7438901D28CF6
:10083B007F007E007D007C00AB25AA24A923A82283
:10084B00C3120438602D758A7E758CFF308DFDC206
:10085B008DAF25AE24AD23AC227BFF7AFF79FF78D9
:10086B00FFEF2BF525EE3AF524ED39F523EC38F5B2
:06087B002280BDC28C22A8
:100881008F298E288D278C26538EF7438901D28C90
:100891007F007E007D007C00AB29AA28A927A8261D
:1008A100C3120438602D758ACA758CFA308DFDC269
:1008B1008DAF29AE28AD27AC267BFF7AFF79FF7873
:1008C100FFEF2BF529EE3AF528ED39F527EC38F550
:0608D1002680BDC28C224E
:1008D7008F2D8E2C8D2B8C2A538EEF438910D28E21
:1008E7007F007E007D007C00AB2DAA2CA92BA82AB7
:1008F700C3120438602D758BEA758DCB308FFDC21E
:100907008FAF2DAE2CAD2BAC2A7BFF7AFF79FF780A
:10091700FFEF2BF52DEE3AF52CED39F52BEC38F5ED
:060927002A80BDC28E22F1
:1007D2008F318E308D2F8C2E53C9BF53C9DF43C941
:1007E20010D2CA7F007E007D007C00AB31AA30A906
:1007F2002FA82EC3120438602D75CC3075CDF83079
:10080200CFFDC2CFAF31AE30AD2FAC2E7BFF7AFF22
:1008120079FF78FFEF2BF531EE3AF530ED39F52F10
:09082200EC38F52E80BDC2CA229B
:1006B7008F358E348D338C3275C40743C4087F0061
:1006C7007E007D007C00AB35AA34A933A832C31263
:1006D7000438603875C52C75C6CFE5C45410FF7E45
:1006E70000EF64104E70F353C4EFAF35AE34AD3343
:1006F700AC327BFF7AFF79FF78FFEF2BF535EE3AC7
:10070700F534ED39F533EC38F53280B253C4F722BE
:100717008F398E388D378C3675C40743C4087F00F0
:100727007E007D007C00AB39AA38A937A836C312F2
:100737000438603875C5D875C6FFE5C45410FF7E08
:1007470000EF64104E70F353C4EFAF39AE38AD37D6
:10075700AC367BFF7AFF79FF78FFEF2BF539EE3A5E
:10076700F538ED39F537EC38F53680B253C4F72252
:10092D008F3D8E3C8D3B8C3A53B1BF53B2BF53B10B
:10093D007F53B27F759850438920438780438E1033
:10094D0053C4DFAB3DAA3CA93BA83A7F407E427D14
:10095D000F7C001203A6EF04FFEFF404F58DD28E89
:03096D00D29922FA
:100596008F418E408D3F8C3E53B1BF53B2BF53B196
:1005A6007F53B27F75985043878053C4F843C42065
:1005B600AB41AA40A93FA83E7F407E427D0F7C000A
:1005C6001203A6A804A905AA06AB07C374FF9BFFDE
:1005D60074FF9AFEE499FDE498FC78081204498FAA
:1005E600C6AB41AA40A93FA83E7F407E427D0F7C14
:1005F600001203A6A804A905AA06AB07C374FF9BAD
:10060600FF74FF9AFEE499FDE498FCEF54FFFFEEB9
:100616005400FEED5400FDEC5400FC8FC543C408A5
:03062600D2992244
:0A09C6003098FD859947C298AF47AD
:0109D0002204
:0B09D1008F48C2998548993099FD229B
:100629008F458E448D438C4253B1FB53B2FB53B378
:10063900BF53B4BF75F85075C40853C4DFAB45AA9E
:1006490044A943A8427F407E427D0F7C001203A645
:10065900A804A905AA06AB07C374FF9BFF74FF9AF8
:10066900FEE499FDE498FC78081204498FC6AB456D
:10067900AA44A943A8427F407E427D0F7C00120311
:10068900A6A804A905AA06AB07C374FF9BFF74FFBC
:100699009AFEE499FDE498FCEF54FFFFEE5400FE46
:0E06A900ED5400FDEC5400FC8FC543C4082244
:0A09DC0030F8FD859A49C2F8AF49D2
:0109E60022EE
:0B09E7008F4AC2F9854A9A30F9FD22C0
:030000000204EA0D
:1004EA0075C7AA75C75575FD5A75C7AA75C75575D3
:1004FA00FDA5787FE4F6D8FD9000007FFF7E03E437
:0C050A00F0A3DFFCDEFA75814A02055107
:10051600020777E493A3F8E493A34003F68001F27D
:1005260008DFF48029E493A3F85407240CC8C333E6
:10053600C4540F4420C8834004F456800146F6DFB5
:10054600E4800B01020408102040809009F2E47E4A
:10055600019360BCA3FF543F30E509541FFEE493AA
:10056600A360010ECF54C025E060A840B8E493A371
:10057600FAE493A3F8E493A3C8C582C8CAC583CA9C
:10058600F0A3C8C582C8CAC583CADFE9DEE780BE54
:0109FA0000FC
:10036A0075F008758200EF2FFFEE33FECD33CDCC4A
:10037A0033CCC58233C5829BED9AEC99E5829840CD
:10038A000CF582EE9BFEED9AFDEC99FC0FD5F0D6AA
:10039A00E4CEFBE4CDFAE4CCF9A88222B800C1B9D4
:1003AA000059BA002DEC8BF084CFCECDFCE5F0CB12
:1003BA00F97818EF2FFFEE33FEED33FDEC33FCEB4B
:1003CA0033FB10D703994004EB99FB0FD8E5E4F906
:1003DA00FA227818EF2FFFEE33FEED33FDEC33FCF3
:1003EA00C933C910D7059BE99A4007EC9BFCE99AE7
:1003FA00F90FD8E0E4C9FAE4CCFB2275F010EF2F2C
:10040A00FFEE33FEED33FDCC33CCC833C810D7072B
:10041A009BEC9AE899400AED9BFDEC9AFCE899F866
:0E042A000FD5F0DAE4CDFBE4CCFAE4C8F922F9
:10043800EB9FF5F0EA9E42F0E99D42F0E89C45F01A
:010448002291
:10044900E8600FECC313FCED13FDEE13FEEF13FF91
:03045900D8F122B5
:10000E00E517240BF8E60517227808300702780B5F
:10001E00E475F0011204B402045C2000EB7F2ED2D2
:10002E00008018EF540F2490D43440D4FF30040BCA
:10003E00EF24BFB41A0050032461FFE518600215C7
:10004E0018051BE51B7002051A30070D7808E475BC
:10005E00F0011204B4EF0204A20209AE7403D20737
:10006E008003E4C207F5178B088A09890AE4F5189C
:10007E00F51AF51BE51860077F2012004980F5750B
:10008E0019FFC201C200C202C203C205C206C208E3
:10009E00120017FF700D3007057F0012005AAF1BBC
:1000AE00AE1A22B4255FC2D5C204120017FF24D0A7
:1000BE00B40A00501A75F00A781830D50508B6FF44
:1000CE000106C6A426F620D5047002D20380D924D8
:1000DE00CFB41A00EF5004C2E5D20402025AD20184
:1000EE0080C6D20080C0D20280BCD2D580BAD205E2
:1000FE0080B47F201200492002077401B518004019
:10010E00F112000EFF120049020082D208D20680C0
:10011E009512000EFB12000EFA12000EF94A4B70E9
:10012E0006792B7A037BFF20022EE518602A7E00CB
:10013E008E8275830012047560060EEE651970F0DE
:10014E00C2D5EBC0E0EAC0E0E9C0E0EE1202A1D0F9
:10015E00E0F9D0E0FAD0E0FB12045CFF60AAEBC03D
:10016E00E0EAC0E0E9C0E0120049D0E02401F9D095
:10017E00E03400FAD0E0FBE5190460DCD519D98033
:10018E00877BFF7A02799DD202809C79108002795A
:10019E0008C206C2088008D2D5790A8004790AC23C
:1001AE00D5E519047002F519E4FAFDFEFF12000EF2
:1001BE00FC7B0820011312000EFD7B1030000A128A
:1001CE00000EFE12000EFF7B20EC3382D592D5502E
:1001DE0013C3E43000069FFFE49EFEE42001039D5E
:1001EE00FDE49CFCE4CBF8C201EC700CCFCECDCC80
:1001FE00E824F8F870F38017C3EF33FFEE33FEED0B
:10020E0033FDEC33FCEB33FB994002FB0FD8E9EBEB
:10021E00300105F8D0E0C448B201C0E00AEC4D4E02
:10022E004F78207B0070C2EAB5190040BCC0E012C6
:10023E0002A3D0F0D0E0200104C4C0E0C4B201C0DB
:10024E00F0120032D0F0D5F0EB0200821204C4019D
:10025E001F5301995800F04C00EC42019D4F01A52F
:0F026E004401A54901054301AB55018F46018F9E
:10027D0045018F47034B5000F42D00F82E011B2B29
:10028D0000FC2301192003342A00B4480000011397
:10029D003F3F3F00790AA2D5200314300509B9105C
:1002AD00020404B9080104A2D5200602500104205D
:1002BD0002689202B518005034C0E07F2030031957
:1002CD007F30A20272067205500F1202FAC202C2EC
:1002DD0006C205C2087F30800F300503E9C0E01269
:1002ED000049300503D0E0F9D0E0B518CC30051742
:1002FD007F30B9100C1200497F583004077F788089
:10030D0003B908031200493002057F2D0200497F11
:10031D00202008F87F2B2006F322920280CF286E32
:10032D00756C6C2900D20112000E3001F8C20178F3
:10033D001830D50108F60200B42D5043495812006B
:10034D000E2403B405004001E49003469312003AD5
:0D035D00743A12003AD20375180402019997
:10045C00BB010689828A83E0225002E722BBFE029E
:09046C00E32289828A83E49322D1
:10047500BB010CE58229F582E5833AF583E022503C
:1004850006E92582F8E622BBFE06E92582F8E22286
:0D049500E58229F582E5833AF583E49322A0
:1004A200BB010689828A83F0225002F722BBFE0139
:0204B200F32233
:1004B400FAE6FB0808E6F925F0F618E6CA3AF62249
:1004C400D083D082F8E4937012740193700DA3A3C7
:1004D40093F8740193F5828883E4737402936860DB
:0604E400EFA3A3A380DFDB
:00000001FF
